{
  "_format": "hh-sol-artifact-1",
  "contractName": "Lottery",
  "sourceName": "contracts/Lottery.sol",
  "abi": [
    {
      "inputs": [
        {
          "internalType": "uint256",
          "name": "_subscriptionId",
          "type": "uint256"
        },
        {
          "internalType": "address",
          "name": "_vrfCoordinator",
          "type": "address"
        },
        {
          "internalType": "bytes32",
          "name": "_keyHash",
          "type": "bytes32"
        },
        {
          "internalType": "uint256",
          "name": "_entryFee",
          "type": "uint256"
        },
        {
          "internalType": "uint256",
          "name": "_duration",
          "type": "uint256"
        }
      ],
      "stateMutability": "nonpayable",
      "type": "constructor"
    },
    {
      "inputs": [
        {
          "internalType": "address",
          "name": "have",
          "type": "address"
        },
        {
          "internalType": "address",
          "name": "want",
          "type": "address"
        }
      ],
      "name": "OnlyCoordinatorCanFulfill",
      "type": "error"
    },
    {
      "anonymous": false,
      "inputs": [
        {
          "indexed": false,
          "internalType": "uint256",
          "name": "lotteryCount",
          "type": "uint256"
        },
        {
          "indexed": false,
          "internalType": "address",
          "name": "winner",
          "type": "address"
        }
      ],
      "name": "LotteryEnded",
      "type": "event"
    },
    {
      "anonymous": false,
      "inputs": [
        {
          "indexed": false,
          "internalType": "uint256",
          "name": "lotteryCount",
          "type": "uint256"
        },
        {
          "indexed": false,
          "internalType": "uint256",
          "name": "endTime",
          "type": "uint256"
        },
        {
          "indexed": false,
          "internalType": "uint256",
          "name": "entryFee",
          "type": "uint256"
        }
      ],
      "name": "LotteryStarted",
      "type": "event"
    },
    {
      "anonymous": false,
      "inputs": [
        {
          "indexed": true,
          "internalType": "address",
          "name": "player",
          "type": "address"
        },
        {
          "indexed": false,
          "internalType": "uint256",
          "name": "lotteryCount",
          "type": "uint256"
        }
      ],
      "name": "PlayerEntered",
      "type": "event"
    },
    {
      "anonymous": false,
      "inputs": [
        {
          "indexed": true,
          "internalType": "address",
          "name": "winner",
          "type": "address"
        },
        {
          "indexed": false,
          "internalType": "uint256",
          "name": "amount",
          "type": "uint256"
        }
      ],
      "name": "WinnerPaid",
      "type": "event"
    },
    {
      "inputs": [],
      "name": "endLottery",
      "outputs": [],
      "stateMutability": "nonpayable",
      "type": "function"
    },
    {
      "inputs": [],
      "name": "enter",
      "outputs": [],
      "stateMutability": "payable",
      "type": "function"
    },
    {
      "inputs": [],
      "name": "entryFee",
      "outputs": [
        {
          "internalType": "uint256",
          "name": "",
          "type": "uint256"
        }
      ],
      "stateMutability": "view",
      "type": "function"
    },
    {
      "inputs": [],
      "name": "getCurrentPlayers",
      "outputs": [
        {
          "internalType": "address[]",
          "name": "",
          "type": "address[]"
        }
      ],
      "stateMutability": "view",
      "type": "function"
    },
    {
      "inputs": [],
      "name": "isLotteryActive",
      "outputs": [
        {
          "internalType": "bool",
          "name": "",
          "type": "bool"
        }
      ],
      "stateMutability": "view",
      "type": "function"
    },
    {
      "inputs": [],
      "name": "lotteryCount",
      "outputs": [
        {
          "internalType": "uint256",
          "name": "",
          "type": "uint256"
        }
      ],
      "stateMutability": "view",
      "type": "function"
    },
    {
      "inputs": [],
      "name": "lotteryEndTime",
      "outputs": [
        {
          "internalType": "uint256",
          "name": "",
          "type": "uint256"
        }
      ],
      "stateMutability": "view",
      "type": "function"
    },
    {
      "inputs": [
        {
          "internalType": "uint256",
          "name": "",
          "type": "uint256"
        },
        {
          "internalType": "uint256",
          "name": "",
          "type": "uint256"
        }
      ],
      "name": "lotteryHistory",
      "outputs": [
        {
          "internalType": "address",
          "name": "",
          "type": "address"
        }
      ],
      "stateMutability": "view",
      "type": "function"
    },
    {
      "inputs": [],
      "name": "owner",
      "outputs": [
        {
          "internalType": "address",
          "name": "",
          "type": "address"
        }
      ],
      "stateMutability": "view",
      "type": "function"
    },
    {
      "inputs": [
        {
          "internalType": "uint256",
          "name": "",
          "type": "uint256"
        }
      ],
      "name": "players",
      "outputs": [
        {
          "internalType": "address",
          "name": "",
          "type": "address"
        }
      ],
      "stateMutability": "view",
      "type": "function"
    },
    {
      "inputs": [
        {
          "internalType": "uint256",
          "name": "requestId",
          "type": "uint256"
        },
        {
          "internalType": "uint256[]",
          "name": "randomWords",
          "type": "uint256[]"
        }
      ],
      "name": "rawFulfillRandomWords",
      "outputs": [],
      "stateMutability": "nonpayable",
      "type": "function"
    },
    {
      "inputs": [],
      "name": "recentWinner",
      "outputs": [
        {
          "internalType": "address",
          "name": "",
          "type": "address"
        }
      ],
      "stateMutability": "view",
      "type": "function"
    },
    {
      "inputs": [
        {
          "internalType": "uint256",
          "name": "duration",
          "type": "uint256"
        }
      ],
      "name": "startLottery",
      "outputs": [],
      "stateMutability": "nonpayable",
      "type": "function"
    },
    {
      "inputs": [
        {
          "internalType": "uint256",
          "name": "_newDuration",
          "type": "uint256"
        }
      ],
      "name": "updateDuration",
      "outputs": [],
      "stateMutability": "nonpayable",
      "type": "function"
    },
    {
      "inputs": [
        {
          "internalType": "uint256",
          "name": "_newEntryFee",
          "type": "uint256"
        }
      ],
      "name": "updateEntryFee",
      "outputs": [],
      "stateMutability": "nonpayable",
      "type": "function"
    },
    {
      "stateMutability": "payable",
      "type": "receive"
    }
  ],
  "bytecode": "0x60a0604052620186a0600a60006101000a81548163ffffffff021916908363ffffffff1602179055506003600a60046101000a81548161ffff021916908361ffff1602179055503480156200005357600080fd5b5060405162002327380380620023278339818101604052810190620000799190620003b2565b838073ffffffffffffffffffffffffffffffffffffffff1660808173ffffffffffffffffffffffffffffffffffffffff1660601b815250505083600760006101000a81548173ffffffffffffffffffffffffffffffffffffffff021916908373ffffffffffffffffffffffffffffffffffffffff16021790555084600881905550826009819055508160038190555033600460006101000a81548173ffffffffffffffffffffffffffffffffffffffff021916908373ffffffffffffffffffffffffffffffffffffffff1602179055506200015a816200016560201b60201c565b50505050506200070d565b600460009054906101000a900473ffffffffffffffffffffffffffffffffffffffff1673ffffffffffffffffffffffffffffffffffffffff163373ffffffffffffffffffffffffffffffffffffffff1614620001f8576040517f08c379a0000000000000000000000000000000000000000000000000000000008152600401620001ef9062000493565b60405180910390fd5b600460149054906101000a900460ff16156200024b576040517f08c379a00000000000000000000000000000000000000000000000000000000081526004016200024290620004b5565b60405180910390fd5b6000806200025a91906200032b565b6000600160006101000a81548173ffffffffffffffffffffffffffffffffffffffff021916908373ffffffffffffffffffffffffffffffffffffffff1602179055508042620002aa919062000525565b6002819055506001600460146101000a81548160ff02191690831515021790555060056000815480929190620002e090620005ca565b91905055507ffcdeb3394eefba8891818e18ed3c4d1aa8872705afa5819133971caea073dc1d6005546002546003546040516200032093929190620004d7565b60405180910390a150565b50805460008255906000526020600020908101906200034b91906200034e565b50565b5b80821115620003695760008160009055506001016200034f565b5090565b6000815190506200037e81620006bf565b92915050565b6000815190506200039581620006d9565b92915050565b600081519050620003ac81620006f3565b92915050565b600080600080600060a08688031215620003cb57600080fd5b6000620003db888289016200039b565b9550506020620003ee888289016200036d565b9450506040620004018882890162000384565b935050606062000414888289016200039b565b925050608062000427888289016200039b565b9150509295509295909350565b60006200044360268362000514565b9150620004508262000647565b604082019050919050565b60006200046a601c8362000514565b9150620004778262000696565b602082019050919050565b6200048d81620005c0565b82525050565b60006020820190508181036000830152620004ae8162000434565b9050919050565b60006020820190508181036000830152620004d0816200045b565b9050919050565b6000606082019050620004ee600083018662000482565b620004fd602083018562000482565b6200050c604083018462000482565b949350505050565b600082825260208201905092915050565b60006200053282620005c0565b91506200053f83620005c0565b9250827fffffffffffffffffffffffffffffffffffffffffffffffffffffffffffffffff0382111562000577576200057662000618565b5b828201905092915050565b60006200058f82620005a0565b9050919050565b6000819050919050565b600073ffffffffffffffffffffffffffffffffffffffff82169050919050565b6000819050919050565b6000620005d782620005c0565b91507fffffffffffffffffffffffffffffffffffffffffffffffffffffffffffffffff8214156200060d576200060c62000618565b5b600182019050919050565b7f4e487b7100000000000000000000000000000000000000000000000000000000600052601160045260246000fd5b7f4f6e6c7920746865206f776e65722063616e2063616c6c20746869732066756e60008201527f6374696f6e2e0000000000000000000000000000000000000000000000000000602082015250565b7f41206c6f747465727920697320616c7265616479206163746976652e00000000600082015250565b620006ca8162000582565b8114620006d657600080fd5b50565b620006e48162000596565b8114620006f057600080fd5b50565b620006fe81620005c0565b81146200070a57600080fd5b50565b60805160601c611bf4620007336000396000818161075901526107ad0152611bf46000f3fe6080604052600436106100ec5760003560e01c80638da5cb5b1161008a578063c6bec93a11610059578063c6bec93a146102c9578063c6f6d9d9146102f2578063e97dcb621461031d578063f71d96cb14610327576100f3565b80638da5cb5b1461020d57806393d9239714610238578063aa18262614610275578063c3b69ebb1461029e576100f3565b80631b50ad09116100c65780631b50ad09146101655780631fe543e31461018e57806343662a7e146101b75780634f8c70cf146101e2576100f3565b806302cac05c146100f8578063072ea61c146101235780631593a8c71461014e576100f3565b366100f357005b600080fd5b34801561010457600080fd5b5061010d610364565b60405161011a91906114ac565b60405180910390f35b34801561012f57600080fd5b506101386103f2565b604051610145919061167c565b60405180910390f35b34801561015a57600080fd5b506101636103f8565b005b34801561017157600080fd5b5061018c60048036038101906101879190611102565b610662565b005b34801561019a57600080fd5b506101b560048036038101906101b09190611154565b610757565b005b3480156101c357600080fd5b506101cc610817565b6040516101d9919061167c565b60405180910390f35b3480156101ee57600080fd5b506101f761081d565b6040516102049190611468565b60405180910390f35b34801561021957600080fd5b50610222610843565b60405161022f9190611468565b60405180910390f35b34801561024457600080fd5b5061025f600480360381019061025a91906111a8565b610869565b60405161026c9190611468565b60405180910390f35b34801561028157600080fd5b5061029c60048036038101906102979190611102565b6108b7565b005b3480156102aa57600080fd5b506102b3610951565b6040516102c091906114ce565b60405180910390f35b3480156102d557600080fd5b506102f060048036038101906102eb9190611102565b610964565b005b3480156102fe57600080fd5b50610307610b1c565b604051610314919061167c565b60405180910390f35b610325610b22565b005b34801561033357600080fd5b5061034e60048036038101906103499190611102565b610d24565b60405161035b9190611468565b60405180910390f35b606060008054806020026020016040519081016040528092919081815260200182805480156103e857602002820191906000526020600020905b8160009054906101000a900473ffffffffffffffffffffffffffffffffffffffff1673ffffffffffffffffffffffffffffffffffffffff168152602001906001019080831161039e575b5050505050905090565b60035481565b600460009054906101000a900473ffffffffffffffffffffffffffffffffffffffff1673ffffffffffffffffffffffffffffffffffffffff163373ffffffffffffffffffffffffffffffffffffffff1614610488576040517f08c379a000000000000000000000000000000000000000000000000000000000815260040161047f9061153c565b60405180910390fd5b600460149054906101000a900460ff166104d7576040517f08c379a00000000000000000000000000000000000000000000000000000000081526004016104ce9061157c565b60405180910390fd5b60025442101561051c576040517f08c379a0000000000000000000000000000000000000000000000000000000008152600401610513906115fc565b60405180910390fd5b6000808054905011610563576040517f08c379a000000000000000000000000000000000000000000000000000000000815260040161055a906115bc565b60405180910390fd5b6000600460146101000a81548160ff021916908315150217905550600760009054906101000a900473ffffffffffffffffffffffffffffffffffffffff1673ffffffffffffffffffffffffffffffffffffffff1663d33d44c1600954600854600a60049054906101000a900461ffff16600a60009054906101000a900463ffffffff1660016040518663ffffffff1660e01b81526004016106089594939291906114e9565b602060405180830381600087803b15801561062257600080fd5b505af1158015610636573d6000803e3d6000fd5b505050506040513d601f19601f8201168201806040525081019061065a919061112b565b600b81905550565b600460009054906101000a900473ffffffffffffffffffffffffffffffffffffffff1673ffffffffffffffffffffffffffffffffffffffff163373ffffffffffffffffffffffffffffffffffffffff16146106f2576040517f08c379a00000000000000000000000000000000000000000000000000000000081526004016106e99061153c565b60405180910390fd5b600460149054906101000a900460ff1615610742576040517f08c379a00000000000000000000000000000000000000000000000000000000081526004016107399061163c565b60405180910390fd5b804261074e919061179d565b60028190555050565b7f000000000000000000000000000000000000000000000000000000000000000073ffffffffffffffffffffffffffffffffffffffff163373ffffffffffffffffffffffffffffffffffffffff161461080957337f00000000000000000000000000000000000000000000000000000000000000006040517f1cf993f4000000000000000000000000000000000000000000000000000000008152600401610800929190611483565b60405180910390fd5b6108138282610d63565b5050565b60025481565b600160009054906101000a900473ffffffffffffffffffffffffffffffffffffffff1681565b600460009054906101000a900473ffffffffffffffffffffffffffffffffffffffff1681565b6006602052816000526040600020818154811061088557600080fd5b906000526020600020016000915091509054906101000a900473ffffffffffffffffffffffffffffffffffffffff1681565b600460009054906101000a900473ffffffffffffffffffffffffffffffffffffffff1673ffffffffffffffffffffffffffffffffffffffff163373ffffffffffffffffffffffffffffffffffffffff1614610947576040517f08c379a000000000000000000000000000000000000000000000000000000000815260040161093e9061153c565b60405180910390fd5b8060038190555050565b600460149054906101000a900460ff1681565b600460009054906101000a900473ffffffffffffffffffffffffffffffffffffffff1673ffffffffffffffffffffffffffffffffffffffff163373ffffffffffffffffffffffffffffffffffffffff16146109f4576040517f08c379a00000000000000000000000000000000000000000000000000000000081526004016109eb9061153c565b60405180910390fd5b600460149054906101000a900460ff1615610a44576040517f08c379a0000000000000000000000000000000000000000000000000000000008152600401610a3b9061159c565b60405180910390fd5b600080610a519190611004565b6000600160006101000a81548173ffffffffffffffffffffffffffffffffffffffff021916908373ffffffffffffffffffffffffffffffffffffffff1602179055508042610a9f919061179d565b6002819055506001600460146101000a81548160ff02191690831515021790555060056000815480929190610ad3906118a6565b91905055507ffcdeb3394eefba8891818e18ed3c4d1aa8872705afa5819133971caea073dc1d600554600254600354604051610b11939291906116c0565b60405180910390a150565b60055481565b600460149054906101000a900460ff16610b71576040517f08c379a0000000000000000000000000000000000000000000000000000000008152600401610b68906115dc565b60405180910390fd5b6002544210610bb5576040517f08c379a0000000000000000000000000000000000000000000000000000000008152600401610bac9061165c565b60405180910390fd5b6003543414610bf9576040517f08c379a0000000000000000000000000000000000000000000000000000000008152600401610bf09061161c565b60405180910390fd5b6000339080600181540180825580915050600190039060005260206000200160009091909190916101000a81548173ffffffffffffffffffffffffffffffffffffffff021916908373ffffffffffffffffffffffffffffffffffffffff160217905550600660006005548152602001908152602001600020339080600181540180825580915050600190039060005260206000200160009091909190916101000a81548173ffffffffffffffffffffffffffffffffffffffff021916908373ffffffffffffffffffffffffffffffffffffffff1602179055503373ffffffffffffffffffffffffffffffffffffffff167fc16481c9484122696a660b57df0bf6839645c6b620cb1704ac2437de13be9225600554604051610d1a919061167c565b60405180910390a2565b60008181548110610d3457600080fd5b906000526020600020016000915054906101000a900473ffffffffffffffffffffffffffffffffffffffff1681565b6000808054905082600081518110610da4577f4e487b7100000000000000000000000000000000000000000000000000000000600052603260045260246000fd5b6020026020010151610db691906118ef565b905060008181548110610df2577f4e487b7100000000000000000000000000000000000000000000000000000000600052603260045260246000fd5b9060005260206000200160009054906101000a900473ffffffffffffffffffffffffffffffffffffffff16600160006101000a81548173ffffffffffffffffffffffffffffffffffffffff021916908373ffffffffffffffffffffffffffffffffffffffff16021790555060004790506000600160009054906101000a900473ffffffffffffffffffffffffffffffffffffffff1673ffffffffffffffffffffffffffffffffffffffff1682604051610eaa90611453565b60006040518083038185875af1925050503d8060008114610ee7576040519150601f19603f3d011682016040523d82523d6000602084013e610eec565b606091505b5050905080610f30576040517f08c379a0000000000000000000000000000000000000000000000000000000008152600401610f279061155c565b60405180910390fd5b600160009054906101000a900473ffffffffffffffffffffffffffffffffffffffff1673ffffffffffffffffffffffffffffffffffffffff167f8cbbe5cd65720098fc8ce6e99a5deb232085117dd486475b49cb11604b528f3083604051610f98919061167c565b60405180910390a27ff2b0cb16f46d26e8d9a559fd5a58bbed7a9cb52d773ccb09ba353b12dc5a5685600554600160009054906101000a900473ffffffffffffffffffffffffffffffffffffffff16604051610ff5929190611697565b60405180910390a15050505050565b50805460008255906000526020600020908101906110229190611025565b50565b5b8082111561103e576000816000905550600101611026565b5090565b60006110556110508461171c565b6116f7565b9050808382526020820190508285602086028201111561107457600080fd5b60005b858110156110a4578161108a88826110d8565b845260208401935060208301925050600181019050611077565b5050509392505050565b600082601f8301126110bf57600080fd5b81356110cf848260208601611042565b91505092915050565b6000813590506110e781611ba7565b92915050565b6000815190506110fc81611ba7565b92915050565b60006020828403121561111457600080fd5b6000611122848285016110d8565b91505092915050565b60006020828403121561113d57600080fd5b600061114b848285016110ed565b91505092915050565b6000806040838503121561116757600080fd5b6000611175858286016110d8565b925050602083013567ffffffffffffffff81111561119257600080fd5b61119e858286016110ae565b9150509250929050565b600080604083850312156111bb57600080fd5b60006111c9858286016110d8565b92505060206111da858286016110d8565b9150509250929050565b60006111f083836111fc565b60208301905092915050565b611205816117f3565b82525050565b611214816117f3565b82525050565b600061122582611758565b61122f8185611770565b935061123a83611748565b8060005b8381101561126b57815161125288826111e4565b975061125d83611763565b92505060018101905061123e565b5085935050505092915050565b61128181611805565b82525050565b61129081611811565b82525050565b61129f81611863565b82525050565b60006112b260268361178c565b91506112bd826119be565b604082019050919050565b60006112d5601a8361178c565b91506112e082611a0d565b602082019050919050565b60006112f860128361178c565b915061130382611a36565b602082019050919050565b600061131b601c8361178c565b915061132682611a5f565b602082019050919050565b600061133e601a8361178c565b915061134982611a88565b602082019050919050565b600061136160168361178c565b915061136c82611ab1565b602082019050919050565b6000611384601a8361178c565b915061138f82611ada565b602082019050919050565b60006113a760148361178c565b91506113b282611b03565b602082019050919050565b60006113ca60248361178c565b91506113d582611b2c565b604082019050919050565b60006113ed600083611781565b91506113f882611b7b565b600082019050919050565b600061141060128361178c565b915061141b82611b7e565b602082019050919050565b61142f8161181b565b82525050565b61143e81611849565b82525050565b61144d81611853565b82525050565b600061145e826113e0565b9150819050919050565b600060208201905061147d600083018461120b565b92915050565b6000604082019050611498600083018561120b565b6114a5602083018461120b565b9392505050565b600060208201905081810360008301526114c6818461121a565b905092915050565b60006020820190506114e36000830184611278565b92915050565b600060a0820190506114fe6000830188611287565b61150b6020830187611435565b6115186040830186611426565b6115256060830185611444565b6115326080830184611296565b9695505050505050565b60006020820190508181036000830152611555816112a5565b9050919050565b60006020820190508181036000830152611575816112c8565b9050919050565b60006020820190508181036000830152611595816112eb565b9050919050565b600060208201905081810360008301526115b58161130e565b9050919050565b600060208201905081810360008301526115d581611331565b9050919050565b600060208201905081810360008301526115f581611354565b9050919050565b6000602082019050818103600083015261161581611377565b9050919050565b600060208201905081810360008301526116358161139a565b9050919050565b60006020820190508181036000830152611655816113bd565b9050919050565b6000602082019050818103600083015261167581611403565b9050919050565b60006020820190506116916000830184611435565b92915050565b60006040820190506116ac6000830185611435565b6116b9602083018461120b565b9392505050565b60006060820190506116d56000830186611435565b6116e26020830185611435565b6116ef6040830184611435565b949350505050565b6000611701611712565b905061170d8282611875565b919050565b6000604051905090565b600067ffffffffffffffff8211156117375761173661197e565b5b602082029050602081019050919050565b6000819050602082019050919050565b600081519050919050565b6000602082019050919050565b600082825260208201905092915050565b600081905092915050565b600082825260208201905092915050565b60006117a882611849565b91506117b383611849565b9250827fffffffffffffffffffffffffffffffffffffffffffffffffffffffffffffffff038211156117e8576117e7611920565b5b828201905092915050565b60006117fe82611829565b9050919050565b60008115159050919050565b6000819050919050565b600061ffff82169050919050565b600073ffffffffffffffffffffffffffffffffffffffff82169050919050565b6000819050919050565b600063ffffffff82169050919050565b600061186e82611853565b9050919050565b61187e826119ad565b810181811067ffffffffffffffff8211171561189d5761189c61197e565b5b80604052505050565b60006118b182611849565b91507fffffffffffffffffffffffffffffffffffffffffffffffffffffffffffffffff8214156118e4576118e3611920565b5b600182019050919050565b60006118fa82611849565b915061190583611849565b9250826119155761191461194f565b5b828206905092915050565b7f4e487b7100000000000000000000000000000000000000000000000000000000600052601160045260246000fd5b7f4e487b7100000000000000000000000000000000000000000000000000000000600052601260045260246000fd5b7f4e487b7100000000000000000000000000000000000000000000000000000000600052604160045260246000fd5b6000601f19601f8301169050919050565b7f4f6e6c7920746865206f776e65722063616e2063616c6c20746869732066756e60008201527f6374696f6e2e0000000000000000000000000000000000000000000000000000602082015250565b7f5472616e7366657220746f2077696e6e6572206661696c65642e000000000000600082015250565b7f4e6f206c6f747465727920746f20656e642e0000000000000000000000000000600082015250565b7f41206c6f747465727920697320616c7265616479206163746976652e00000000600082015250565b7f4e6f20706c617965727320696e20746865206c6f74746572792e000000000000600082015250565b7f4c6f7474657279206973206e6f74206163746976652e00000000000000000000600082015250565b7f4c6f7474657279206475726174696f6e206e6f74206f7665722e000000000000600082015250565b7f496e636f727265637420656e747279206665652e000000000000000000000000600082015250565b7f43616e6e6f742075706461746520647572696e6720616374697665206c6f747460008201527f6572792e00000000000000000000000000000000000000000000000000000000602082015250565b50565b7f4c6f74746572792068617320656e6465642e0000000000000000000000000000600082015250565b611bb081611849565b8114611bbb57600080fd5b5056fea26469706673582212202766018657e95b807f1f553b5a640600aaeb568076a1f053100da06733d028ef64736f6c63430008040033",
  "linkReferences": {},
  "deployedLinkReferences": {}
}